:020000040800F2
:10000000600C0020D12C0008A9060008AB060008EF
:10001000AF060008B3060008B7060008000000009D
:10002000000000000000000000000000BB06000807
:10003000BD06000800000000BF060008E92C00080B
:10004000EB2C0008EB2C0008EB2C0008EB2C000834
:10005000EB2C0008EB2C0008EB2C0008EB2C000824
:10006000EB2C0008EB2C0008EB2C0008EB2C000814
:10007000EB2C0008EB2C0008EB2C0008EB2C000804
:10008000EB2C0008EB2C0008EB2C0008EB2C0008F4
:10009000EB2C0008EB2C0008EB2C0008EB2C0008E4
:1000A000EB2C0008EB2C0008EB2C0008EB2C0008D4
:1000B0001F0A0008EB2C0008C5100008EB2C0008F4
:1000C000EB2C0008EB2C0008EB2C0008EB2C0008B4
:1000D000EB2C0008732B0008EB2C0008EB2C00081D
:1000E000EB2C0008EB2C0008EB2C0008EB2C000894
:1000F000EB2C0008EB2C0008EB2C0008EB2C000884
:10010000EB2C0008EB2C0008EB2C0008EB2C000873
:10011000EB2C0008EB2C0008EB2C0008EB2C000863
:10012000EB2C0008EB2C0008EB2C0008EB2C000853
:1001300000F002F800F04AF80AA090E8000C8244AF
:100140008344AAF10107DA4501D100F03FF8AFF28C
:10015000090EBAE80F0013F0010F18BFFB1A43F0A5
:10016000010318471C7D00003C7D0000103A24BFAD
:1001700078C878C1FAD8520724BF30C830C144BF0C
:1001800004680C607047000000230024002500264E
:10019000103A28BF78C1FBD8520728BF30C148BFEA
:1001A0000B607047662906F03682642904F0D0821D
:1001B000002070471FB504F02BFE04000020002132
:1001C00005F07CFBE0601FBD10B510BD04F024FFFE
:1001D0001146FFF7EFFF00F009F804F042FF03B407
:1001E000FFF7F2FF03BC02F069FC00001CB54FF4FE
:1001F000E06003F011FB02F001FD4FF4165002F035
:100200006BFC01F093F801F051F941F61F41092010
:1002100000F02BFF00F057FE00F0F9FB00214FF635
:10022000FF7000F03DFBCBE102F022FAE5480078D8
:1002300001287AD1E4480188E4A004F069FAE6488C
:10024000006806F053F804462146E4A004F060FA82
:10025000E848007801287FD1E748007800286ED070
:100260000020E549087000F074FC0C23E3A2002193
:10027000084600F0E6FD0C23E3A20D21002000F06B
:10028000E0FD0C23E1A20D21402000F0DAFD0C235B
:10029000DFA21B21002000F0D4FD0C23DDA22821C9
:1002A000002000F0CEFD0C23DDA23421002000F060
:1002B000C8FDDF48006806F035F804460C2003232B
:1002C000224600210090502000F031FD0C23D94837
:1002D0000D210268122000F074FD0C23D6480D2178
:1002E0000268522000F06DFD0C23D4481B210268E7
:1002F000122000F066FDD248007850B10020D049AD
:10030000087001200C23532200210090792000F076
:1003100084FCCC480078012809D10C232B22282109
:100320000090422000F079FC09E08EE014E001200A
:100330000C232D2228210090422000F06EFC0C237B
:10034000A54834210268502000F03BFD00F0C2FBBC
:1003500000209C49087078E0A648007802283CD12B
:10036000A5480078002835D00020A349087000F087
:10037000F0FB1023B4A20021084600F062FD102318
:10038000B5A21946402000F05CFD1023B3A2202145
:10039000002000F056FD1023B2A23021002000F012
:1003A00050FD1023B14819460268002000F009FDF5
:1003B000102003230090AE4802782021302000F066
:1003C000B6FC102003230090AA480278302108468A
:1003D00000F0ADFC00F07EFB37E08748007890B37A
:1003E00000208549087000F0B4FB96480078012889
:1003F00007D10C232B2228210090062000F00DFCB1
:1004000007E001200C232D2228210090062000F077
:1004100004FC8748006805F085FF04460C20032390
:1004200022460D210090002000F081FC80480068E9
:1004300005F078FF04460C20032322463421009067
:10044000002000F074FC00F0F2FE8B48008800F4FD
:10045000004000287ED0884890F8009087A004F0E3
:1004600057F900240DE08A48005D8A49088000BFE2
:100470008848001F008800F040000028F8D0601C69
:10048000C4B24C45EFDB002490E08148005D442875
:1004900066D049283FD050281AD0532817D17C4A1B
:1004A000611C515C303964225143794BA21C9A5C27
:1004B000303A02EB820201EB4202E11C595C303916
:1004C000501805F04FFF5A490860E01CC4B26AE0BA
:1004D0006F4AE11C515CA1F1300005F066FC074653
:1004E0006D4A6E4B05F08CFC05460E46684A611C51
:1004F000515CA1F1300005F058FC82462A46334693
:1005000005F024FACDE9000105F0EEF9494908604B
:10051000E01CC4B247E05E4AE11C515CA1F130002E
:1005200005F043FC07465C4A5C4B05F069FC054658
:100530000E46574A611C515CA1F1300005F035FCB4
:1005400082462A46334605F001FACDE9000105F05E
:10055000CBF900E034E038490860E01CC4B222E086
:100560004B4AE11C515CA1F1300005F01EFC054630
:10057000494A4A4B05F044FC82468B46444A611C7A
:10058000515CA1F1300005F010FC074652465B4675
:1005900005F0DCF9CDE9000105F0A6F9274908606E
:1005A000E01CC4B200BF00BF601CC4B24C45FFF6E3
:1005B0006CAF3BA004F0ACF800202F49088000BFCE
:1005C00032E600000E0000203400002070776D201D
:1005D0003A25642020000000040000204375727258
:1005E000656E7473706565643A25642E320D0A2059
:1005F000000000000F0000201000002053657473FD
:10060000706565643A0000004B503A004B493A006F
:100610004B443A00446972656374696F6E3A000036
:1006200043757272656E7473706565643A0000009C
:1006300000000020280000202C00002030000020B6
:10064000110000201200002044534F5F5365744393
:1006500079636C653A000000530000004D61783A00
:10066000000000004D696E3A000000000800002004
:100670000C0000200D0000209C0000200D0AC4FA90
:10068000B7A2CBCDB5C4CFFBCFA2CEAA3A0D0A00FC
:1006900038050020043801409A9999999999B93FF1
:1006A0000D0A0D0A00000000704700BFFEE700BF02
:1006B000FEE700BFFEE700BFFEE7704770477047E8
:1006C0000CB50020019000906C48006840F4803028
:1006D0006A49086000BF6948006800F40030009073
:1006E0000198401C0190009818B90198B0F5A06FCE
:1006F000F1D16248006800F4003010B10120009090
:1007000001E0002000900098012843D15C48006877
:1007100040F010005A4908600846006820F00300C5
:1007200008600846006840F00200086053484068CE
:10073000524948600846406848600846406840F4AE
:10074000806048600846406820F47C104860084695
:10075000406840F4E81048600846006840F0807047
:10076000086000BF4548006800F000700028F9D01C
:100770004248406820F0030040494860084640680D
:1007800040F00200486000BF3C48406800F00C00A8
:100790000828F9D10CBD10B5FFF792FF10BD10B5B8
:1007A0003648006840F00100344908600846406857
:1007B00034490840314948600846006832490840D9
:1007C0002E4908600846006820F48020086008462A
:1007D000406820F4FE0048604FF41F008860FFF777
:1007E000DAFF4FF000602949086010BD10B5002104
:1007F00000200022214B5B6803F00C0121B1042989
:1008000006D0082928D107E0214B224C236027E09D
:100810001F4B204C236023E0184B5B6803F47010DF
:10082000164B5B6803F48032022303EB904022B93D
:10083000194B4343174C23600DE0104B5B6803F4E6
:10084000003323B1144B4343124C236003E0104B9D
:100850004343104C236003E00D4B0E4C236000BF5C
:1008600000BF064B5B68C3F303130C4CE15C094B00
:100870001B68CB40074C236010BD000000100240F5
:10088000002002400000FFF8FFFFF6FE08ED00E048
:1008900000127A001400002000093D00180000201A
:1008A00030B589B005460C460121C80202F04CFD66
:1008B0000121042002F048FD4FF48070ADF82000C3
:1008C00018208DF8230003208DF8220008A918486D
:1008D00002F07EFAADF81850ADF814400020ADF8E3
:1008E0001A00ADF8160005A9124803F0D7F87020D9
:1008F000ADF804000120ADF806000020ADF80A00B4
:10090000ADF80C0001A90B4803F005F901210948D5
:1009100003F02CFC0821074803F04CFD0121054899
:1009200003F018FD0121034803F014FC09B030BDA9
:1009300000080140002C01400EB50121022002F008
:1009400010FD4FF6FE70ADF804000020ADF8000079
:10095000ADF80600ADF802006946444803F09EF881
:1009600000231A461946414803F08BFC00213F48FA
:1009700003F084FE01213D4803F0ECFB0EBD1FB5E2
:100980000121084602F0EDFCC720ADF8080048F64A
:100990009F40ADF804000020ADF80A00ADF8060055
:1009A00001A94FF0804003F079F80121880703F096
:1009B00097FE01221146900703F0E7FB1C208DF8FB
:1009C000000000208DF8010001208DF802008DF854
:1009D0000300684602F025FF0121880703F0BAFBF7
:1009E0001FBD08B50121202002F0AEFC0420ADF8A7
:1009F00000008DF8030003208DF8020069461C48B2
:100A000002F0E6F904211A4802F08FFA08BD10B589
:100A1000FFF792FFFFF7B3FFFFF7E3FF10BD2DE9EC
:100A2000F0470121880703F05EFEE0B1012188074D
:100A300003F06AFE0D4803F044FE824605F0CCF94F
:100A400006460C4A0C4B05F029F8044600220B4BD5
:100A500005F024F8804604F047FF094908600021AA
:100A6000024803F00BFEBDE8F087000000040040E0
:100A7000001401409A9999999999C93F00C0624020
:100A80000400002010B5FE4B19600023FD4CC4F893
:100A9000A431002214E00023FB4C236000F080030B
:100AA0001BB10123241D236003E00023F64C241D09
:100AB00023600123F44C23604306180E531CDAB262
:100AC000082AE8DB0123EE4C241D2360ED4CC4F81A
:100AD000A03110BD30B500241CE004F1B001C8B253
:100AE0000021FFF7CFFF00210846FFF7CBFF0021D1
:100AF0001020FFF7C7FF002508E0E44901EBC5011E
:100B0000085D0121FFF7BEFF681CC5B2802DF4DB34
:100B1000601CC4B2082CE0DB30BD00B500218D2084
:100B2000FFF7B0FF00211420FFF7ACFF0021AF203A
:100B3000FFF7A8FF00BD00B500218D20FFF7A2FF41
:100B400000211020FFF79EFF0021AE20FFF79AFF43
:100B500000BD30B500240CE0002506E00020CB49A4
:100B600001EBC5010855681CC5B2802DF6DB601C81
:100B7000C4B2082CF0DBFFF7ADFF30BDF0B5144672
:100B800000267F2801DC3F2900DDF0BD0B46CF1792
:100B900001EB5777FF10C7F10707FAB2CF1701EB48
:100BA0005777FF10A1EBC707FDB2C5F10707012377
:100BB000BB40DEB24CB1B54B03EBC0039B5C33438F
:100BC000B24F07EBC007BB5408E0B04B03EBC003C8
:100BD0009B5CB343AD4F07EBC007BB5400BFD4E7EA
:100BE0002DE9F04706460F4690469946DDF820A0CD
:100BF00034460CE03D4606E0524629462046FFF7C3
:100C0000BDFF681CC5B24D45F6DD601CC4B244454D
:100C1000F0DDFFF75FFFBDE8F0872DE9F84F804674
:100C20000F4616461C46BA462046E31704EB53739C
:100C3000DB1021464FEAE47C04EB5C7C4FEAEC0CD1
:100C4000A4EBCC0CBCF1000F02D04FF0010C01E082
:100C50004FF0000C6344224604EBD27C4FEA6C0C4C
:100C600003FB0CF303F0FF0BA6F12000C6B2002536
:100C70004EE00C2C07D106EB4600854901EB8000C5
:100C8000405D009013E0102C05D1824800EB061067
:100C9000405D00900BE0182C07D106EBC6007E49A2
:100CA00001EB8000405D009001E0BDE8F88F4FF05F
:100CB000000927E0009800F0800028B1394640463E
:100CC0000A9AFFF75BFF09E00A9808B9012000E0E3
:100CD0000020024639464046FFF750FF0098400684
:100CE000000E0090781CC7B2A7EB0A00A04205D105
:100CF000574608F1010000F0FF0806E009F1010085
:100D000000F0FF09B9F1080FD4DB00BF681CC5B2C1
:100D10005D45AEDB00BFC8E710B50246012000E02C
:100D200050430B1EA1F10104E1B2F9D110BD2DE930
:100D3000FF4F81B0074691461E460E9D4FF0000AB8
:100D4000002439E0301B401EC1B20A20FFF7E4FF47
:100D5000B9FBF0F00A21B0FBF1F201FB1208BAF185
:100D6000000F16D1701EA04213DDB8F1000F0ED196
:100D70000120AB4605EBDB71491001FB04710090CB
:100D8000C8B22B4620220299FFF747FF12E04FF02E
:100D9000010A0120AB4605EBDB71491001FB047130
:100DA0000090C8B208F13001CAB22B460299FFF791
:100DB00034FF00BF601CC4B2B442C3DB05B0BDE861
:100DC000F08F2DE9F04786B00646894692461C46CC
:100DD00001AD504605F0FCF907463A460B462FA1F7
:100DE00001A803F0A1FC23E004EBD4714910C1F188
:100DF0008001B14204DA002609EB040000F0FF098B
:100E0000C4F14000484504DA002006468146FFF759
:100E1000A0FE012000902A78234649463046FFF77D
:100E2000FCFE204604EBD07106EB6101CEB26D1CD6
:100E300028787E2802DC28782028D5DA06B0BDE89C
:100E4000F087F8B506460F4615461C4634E004EB1D
:100E5000D4714910C1F18001B14202DA002638197B
:100E6000C7B2C4F14000B84204DA00200646074683
:100E7000FFF76FFE012000902A782346394611E0E3
:100E8000A00122420000224280812142B8000020BD
:100E90001A6600088E6A00087E700008252E3166EA
:100EA000000000003046FFF7B8FE204604EBD0718A
:100EB00006EB6101CEB26D1C28787E2802DC287812
:100EC0002028C4DAF8BD08B50121182002F03CFA48
:100ED0000320ADF8000010208DF8030003208DF8EA
:100EE00002006946454801F073FF8020ADF800001C
:100EF0001C208DF803006946404801F069FF03217A
:100F00003E4802F01BF84FF44070ADF8000010208E
:100F10008DF8030003208DF802006946384801F07F
:100F200057FF4FF44071364801F0FFFF0021AE201B
:100F3000FFF7A8FD0021D520FFF7A4FD00215020D8
:100F4000FFF7A0FD0021A820FFF79CFD00213F2016
:100F5000FFF798FD0021D320FFF794FD00210846FC
:100F6000FFF790FD00214020FFF78CFD00218D2030
:100F7000FFF788FD00211420FFF784FD00212020C9
:100F8000FFF780FD00210220FFF77CFD0021A1205A
:100F9000FFF778FD0021C020FFF774FD0021DA2063
:100FA000FFF770FD00211220FFF76CFD002181206A
:100FB000FFF768FD0021EF20FFF764FD0021D92035
:100FC000FFF760FD0021F120FFF75CFD0021DB2031
:100FD000FFF758FD00213020FFF754FD0021A42029
:100FE000FFF750FD0021A620FFF74CFD0021AF20A8
:100FF000FFF748FDFFF7ADFD08BD0000000C014004
:10100000001001402DE9F04704460D4629462046D0
:1010100005F08CFA464908600846016845480068B2
:1010200005F0B8F98046444801684148006805F079
:101030007DFA814641480168484605F0ABF907460C
:10104000414605F0F1F806463D480168304605F096
:10105000EBF83B4908603648006837490860384873
:10106000006805F043F9BDE8F0877FB505460C46FA
:101070000121042002F075F9ADF80850ADF80440E4
:101080000020ADF80A00ADF8060001A92D4802F0D5
:1010900005FD012211462B4803F077F81E208DF83C
:1010A000000000208DF8010003208DF802000120CF
:1010B0008DF80300684602F0B4FB0121214803F0DB
:1010C00049F87FBD10B501211E4803F00CFB70B339
:1010D00000F082FA1C48007890B91C4801681C484E
:1010E0000068FFF78FFF1B490880084601881A48EF
:1010F00003F0C8FA0A201449087001201749087043
:1011000011480078401E104908701548007828B929
:101110001E201349087001201249087010480078F9
:10112000401E0F4908700121064803F0EDFA10BD7A
:101130003800002028000020400000202C00002063
:101140003C00002000080040440000200000002077
:101150000400002034000020002C01400E0000207C
:1011600045000020460000202DE9F84F04460D46BA
:1011700016461F46002000907F2C00DD7F243F2D67
:1011800000DD3F257F2E00DD7F263F2F00DD3F273E
:10119000301B002801DB014600E041424FFA81F894
:1011A000781B002801DB014600E041424FFA81F93B
:1011B000C1450DDD0120009008F0FF00C8464FFA40
:1011C00080F920462C46054630463E46074600BF7D
:1011D000B44206DD20463446064628463D460746CC
:1011E00000BF4FEA680ABD4202DA4FF0010B01E08E
:1011F0004FF0FF3B17E0009828B9294620460A9A8D
:10120000FFF7BCFC04E0214628460A9AFFF7B6FC2B
:10121000AAEB090ABAF1000F03DA05EB0B00C5B21D
:10122000C244601CC4B2B442E5DDBDE8F88F2DE9CC
:10123000F84F3948007801286CD13848006804F02C
:10124000C7FF06460022364B04F0DAFD04460022B2
:10125000344B04F023FC804604F078FDC0F13F00DD
:10126000314981F87F0000202B4908704FF0140AA3
:1012700018E02D490AF10100085C01F80A0008464F
:1012800010F80A1001225046FFF778FC264B0AF1AD
:101290000102995CD0B20022FFF770FC0AF1010054
:1012A00000F0FF0ABAF17F0FE3DB4FF0140A1FE0F2
:1012B00001201D4C00900AF10100235CC2B22046BF
:1012C00010F80A105046FFF74FFF002025460AF19C
:1012D000010400902B5D641CE2B22C4614F80A1045
:1012E0000AF10104E0B2FFF73FFF204600F0FF0AD9
:1012F000BAF17F0FDCDB0948006804F0F7FF044611
:101300000C2003232246002100900846FFF70FFD22
:10131000FFF7E0FBBDE8F88F460000200400002046
:1013200000804F4000406040B80400202DE9F84F95
:1013300001F006FB002001F007FB00900098522806
:101340007ED10322FE49012001F094FB0422FD49D5
:10135000104601F08FFB0422FB49082001F08AFBB4
:101360000422FA490C2001F085FBF5490978642232
:101370005143F34A527802EB820201EB4201F04AF8
:101380009278881804F0EEFFF1490860ED49C878BA
:1013900004F022FD8046EF4AEF4B04F031FD044695
:1013A0000D46E8494978E74A127802EB820201EBE0
:1013B000420004F0FAFC064622462B4604F0C6FA28
:1013C000824604F091FAE5490860DF49C87804F0E4
:1013D00003FD0646DF4AE04B04F012FD04460D46CD
:1013E000D9494978D84A127802EB820201EB4200CF
:1013F00004F0DBFC804622462B4604F0A7FA824626
:1014000004F072FAD6490860D049C87804F0E4FCC8
:101410008046D04AD04B04F0F3FC04460D46CB493D
:101420004978CA4A127802EB820201EB420004F0CA
:10143000BCFC064622462B4604F088FA824600E0B1
:1014400004E004F051FAC749086017E05221002077
:1014500001F0A6FA0322BA49012001F01CFB042284
:10146000B849104601F017FB0422B749082001F0E3
:1014700012FB0422B5490C2001F00DFBBDE8F88FEA
:1014800010B50322AE49012001F005FB0422AD494D
:10149000104601F000FB0422AB49082001F0FBFAE2
:1014A0000422AA490C2001F0F6FA10BD08B501216A
:1014B0000D2001F049FF4FF40060ADF80000482016
:1014C0008DF803006946A84801F082FC4FF4806063
:1014D000ADF8000048208DF803006946A24801F0ED
:1014E00077FC4FF40070ADF8000048208DF8030041
:1014F00069469D4801F06CFC4FF48070ADF8000027
:1015000048208DF803006946974801F061FC4FF4CC
:101510008050ADF8000010208DF8030003208DF8F6
:1015200002006946904801F053FC4FF480518E4808
:1015300001F0FBFC4FF40050ADF8000069468A480A
:1015400001F046FC4FF40051874801F0EEFC4FF4E7
:101550008040ADF800006946834801F039FC4FF443
:101560008041814801F0E1FC4FF40040ADF80000FB
:1015700069467D4801F02CFC4FF400417A4801F0A7
:10158000D4FC0121794801F0F4FC4FF40040ADF89F
:10159000000003208DF8020010208DF8030069463A
:1015A000734801F015FC4FF40041714801F0BDFC97
:1015B0004FF48050ADF8000010208DF80300032098
:1015C0008DF8020069466A4801F002FC4FF4805130
:1015D000674801F0ACFC08BD6649097801F00301D9
:1015E000644A11701146097831B1012910D00229DD
:1015F0001BD0032933D125E05B490C31096841F444
:10160000FE41594A0C32116000215B4A116027E00B
:1016100055490C31096841F43F41534A0C3211607D
:101620000021554A121F11601AE04F490C31096818
:1016300041F45F414C4A0C32116000214E4A083A95
:1016400011600DE048490C31096841F46F41464A88
:101650000C3211600021484A0C3A116000E000BFD2
:1016600000BF454990390968444A424B1B7812F83B
:10167000232041EA4201414A3E4B1B7802F82310E5
:101680003F49D1F828113B4B1B7802EB830252787B
:1016900041EA4201394A374B1B7802EB8302517011
:1016A0003749D1F824213549324B1B7801EB8301AE
:1016B000897842EA4101CAB230492E4B1B7801EBCE
:1016C00083018A702E49D1F820112C4A294B1B78AE
:1016D00002EB8302D27841EA4201CAB22749254B84
:1016E0001B7801EB8301CA70002023E02349214AC3
:1016F000127801EB8201095C01F00F0139B9002178
:10170000204A1C4B1B7802EB8302115410E01B494A
:10171000184A127801EB8201095C01F00F010F29D0
:1017200006D10121174A134B1B7802EB8302115497
:10173000411CC8B20428D9DB0E490978491C23E0B2
:10174000570000205B0000205F00002063000020A5
:10175000000000209A9999999999B93F2800002092
:101760002C00002030000020000C0140000230005E
:101770000008014068000020BC812142690000206F
:101780000080214247000020FE4A1170704738B5A2
:101790000446FD48007828B90C23FCA2342100201F
:1017A000FFF74FFBFA48F849097844540C20F649F2
:1017B0000090097801EB4101002202EB4101C8B21F
:1017C000012322463421FFF7B2FAEF480078401C8B
:1017D000ED49087008460078032826D10C23EDA2B5
:1017E00034210020FFF72DFB0020E7490870E8496D
:1017F000097864225143E64A527802EB820201EBF7
:101800004201E34A9278881804F0ACFDE24908608E
:101810000846006804F086FD05460C2003232A468E
:101820000D2100900020FFF782FA38BD2DE9FC471A
:101830008246DA480078DA490978884206D00020E2
:10184000D8490870D6480078D4490870BAF1200FFA
:1018500071D0D4480078F0B9D1480078012804D07C
:10186000022809D0032815D10DE01023CEA2194675
:101870000020FFF7E6FA0DE01023CBA22021302054
:10188000FFF7DFFA06E01023C7A230210846FFF772
:10189000D8FA00BF00BFC2480078012812D1BAF1BF
:1018A0002E0F03D0BF48007801280BD10120BD497D
:1018B00000900978C906080E10232E221946FFF75A
:1018C000ACF960E0B6480078012817D1BAF12E0FC4
:1018D00014D1B4480078012810D00020B449B14A8E
:1018E000127888541020AF4900900978C906080E74
:1018F000012300221021FFF71AFA44E0BAF12E0F5B
:1019000041D0A7480078012804D0022814D0032829
:1019100038D124E0A648A349097800F801A0102096
:10192000A04900900978C906080E012352461021EB
:10193000FFF7FDF926E032E09E489A49097800F861
:1019400001A01020974900900978302202EBC101D4
:10195000C8B2012352462021FFF7E9F912E0964868
:101960009049097800F801A010208E49009009786C
:10197000302202EBC101C8B2012352463021FFF7E9
:10198000D6F900BF00BF87480078401C8549087021
:101990000846007803283DD1002008703AE0002076
:1019A000804908708249887804F016FA0646834A0E
:1019B000834B04F025FA04460D467D49087804F06F
:1019C0000BFA804622462B4603F0C0FFCDE900010A
:1019D00003F08AFF7B490860764800786421484319
:1019E0007449497801EB810100EB41007149897824
:1019F00008447549087070480078642148436E496E
:101A0000497801EB810100EB41006B49897808447A
:101A10006E490870BDE8FC872DE9FC4782466C489A
:101A200000785F490978884206D00020694908702B
:101A30005B48007866490870BAF1200F7ED065488F
:101A40000078F0B956480078022804D0032809D05D
:101A5000042815D10DE00C2353A20D211220FFF70D
:101A6000F0F90DE00C2350A20D215220FFF7E9F907
:101A700006E00C234CA21B211220FFF7E2F900BF65
:101A800000BFBAF12E0F7BD1524800780128FAD15D
:101A900043480078022804D003282ED004282BD1F4
:101AA00059E04D4800784C494A4A12788854002041
:101AB00008700C20012300220D2100901220FFF756
:101AC00036F90C20444900904A784249097801EBE4
:101AD0004101122303EB4101C8B201230D21FFF79D
:101AE00026F901200C232E220D2100901E20FFF745
:101AF00094F80220374908708CE03848007837495C
:101B0000344A12788854002008700C2001230022E7
:101B10000D2100905220FFF70AF90C202F49009068
:101B20004A782C49097801EB4101522303EB41012A
:101B3000C8B201230D21FFF7FAF800E03CE10120D3
:101B40000C232E220D2100905E20FFF766F8022064
:101B5000204908705EE0224801781E4A12788154BC
:101B600000201F4908700C20012300221B21009037
:101B70001220FFF7DCF80C20194900904A7831E078
:101B800049E00000680000208A000020202020009A
:101B9000570000206F6B2100000000208E00002005
:101BA000670000208D000020202020200000000081
:101BB0008F00002092000020950000209A999999AA
:101BC0009999B93F080000200C0000200D0000206A
:101BD0008C0000208B0000205B0000205F000020B4
:101BE00063000020F949097801EB4101122303EB5E
:101BF0004101C8B201231B21FFF799F801200C23F2
:101C00002E221B2100901E20FFF707F80220EF492B
:101C1000087000BFC4E0BAF12E0F03D0EB48007883
:101C2000022824D1EA480078022804D003280BD0E7
:101C300004281BD111E001200C232E220D2100903D
:101C40001E20FEF7EAFF11E001200C232E220D21B9
:101C500000905E20FEF7E1FF08E001200C232E2219
:101C60001B2100901E20FEF7D8FF00BF98E0BAF1BC
:101C70002E0F4CD1D5480078032848D1D44800789D
:101C8000022804D0032817D004283FD129E00020DF
:101C9000D049CE4A127888540C20CC49009009785B
:101CA00001EB4101122202EB4101C8B201230022E3
:101CB0000D21FFF73CF829E00020C749C34A1278FC
:101CC00088540C20C1490090097801EB410152224F
:101CD00002EB4101C8B2012300220D21FFF727F8D2
:101CE00014E00020BD49B94A127888540C20B74945
:101CF0000090097801EB4101122202EB4101C8B2C8
:101D0000012300221B21FFF712F800BF48E0B04872
:101D10000078022804D0032817D004283FD129E0F6
:101D2000AC48AA49097800F801A00C20A749009006
:101D3000097801EB4101122202EB4101C8B20123F3
:101D400052460D21FEF7F3FF29E0A3489F49097889
:101D500000F801A00C209D490090097801EB410199
:101D6000522202EB4101C8B2012352460D21FEF777
:101D7000DEFF14E099489549097800F801A00C208D
:101D800092490090097801EB4101122202EB4101D6
:101D9000C8B2012352461B21FEF7C9FF00BF00BF96
:101DA0008A480078401C8949087008460078042851
:101DB00065D10020087062E00020844908708549E0
:101DC000C87804F009F8864A864BCDE9000104F092
:101DD00017F8804689467F4949787E4A127802EB97
:101DE000820201EB420003F0E0FF064642464B460A
:101DF00003F0ACFD044603F077FD7B4908607649AB
:101E0000C87803F0E9FF0646754A764B03F0F8FF01
:101E100004460D46704949786F4A127802EB8202F7
:101E200001EB420003F0C1FF22462B46CDE9000141
:101E300003F08CFD804603F057FD6C49086067494C
:101E4000C87803F0C9FF8046654A664B03F0D8FFA7
:101E500004460D4661494978604A127802EB8202D5
:101E600001EB420003F0A1FF064622462B4603F099
:101E70006DFDCDE9000103F037FD5D490860BDE867
:101E8000FC8738B50446202C28D05A48007830B951
:101E90000C23AFF2083200215020FEF7D2FF564843
:101EA0005449097844540C2052490090097801EBB8
:101EB0004101502202EB4101C8B201232246002118
:101EC000FEF735FF4B480078401C4A490870084629
:101ED0000078032816D10020087013E0002045493F
:101EE00008704549097864225143434A527802EB0D
:101EF000820201EB4201404A9278881804F032FADB
:101F00003E49086038BD38B504466C2C0DD0752CA0
:101F10002AD13B480078C04339490870012039492B
:101F2000087000202A4908701EE035480078012812
:101F300008D033480078022804D031480078C043E4
:101F40002F4908702E480078401C2D49087008461B
:101F50000078032801D10120087001202949087068
:101F600000201B49087000BF00BF254800780128E9
:101F70007DD1642C04D0652C7AD0722C79D18CE080
:101F800013480078401C124908700846007806285B
:101F900001D1012008700E48007806287BD2DFE8C6
:101FA00000F07A033344556901200C233C220021C0
:101FB00000907920FEF731FE01200C2320222821F9
:101FC00000907920FEF729FE65E000008B000020DC
:101FD000670000205B0000205F00002063000020FD
:101FE0009A9999999999B93F280000202C000020CE
:101FF0003000002089000020570000200000002051
:102000000F0000201000002001200C233C220D2195
:1020100000903820FEF701FE01200C232022002131
:1020200000907920FEF7F9FD35E001200C233C22D9
:102030000D2100907920FEF7F0FD01200C232022D5
:102040000D2100903820FEF7E8FD24E001200C234C
:102050003C221B2100903820FEF7DFFD01200C23DD
:1020600020220D2100907920FEF7D7FD13E077E1C3
:1020700020E031E001200C233C222821009079202F
:10208000FEF7CBFD01200C2320221B2100903820DD
:10209000FEF7C3FD00BF00BF1EE02020FFF7F1FEEA
:1020A0002020FFF7B9FC0120F84908700020F8490A
:1020B000087011E02020FFF7E4FE2020FFF7ACFCC1
:1020C0000120F24908700020F1490870FFF7D8F9A3
:1020D0000120F049087000BF00BFED4800780128DA
:1020E00031D10A2C2ED2DFE804F02905090D111593
:1020F000191D21250120FFF7C4FE23E00220FFF770
:10210000C0FE1FE00320FFF7BCFE1BE00420FFF72A
:10211000B8FE17E00520FFF7B4FE13E00620FFF736
:10212000B0FE0FE00720FFF7ACFE0BE00820FFF742
:10213000A8FE07E00920FFF7A4FE03E00020FFF758
:10214000A0FE00BF93E2D2480078022843D1052CBC
:1021500024D006DC052C3DD2DFE804F0341014183E
:102160001C00082C26D004DC062C1BD0072C31D1F7
:102170001CE0092C22D06E2C2CD127E00120FFF787
:102180004BFC27E00220FFF747FC23E00320FFF78A
:1021900043FC1FE00420FFF73FFC1BE00520FFF796
:1021A0003BFC17E00620FFF737FC13E00720FFF7A2
:1021B00033FC0FE00820FFF72FFC0BE00920FFF7AE
:1021C0002BFC07E00020FFF727FC03E02E20FFF7A1
:1021D00023FC00BF4BE2AE480078032843D1052C16
:1021E00024D006DC052C3DD2DFE804F034101418AE
:1021F0001C00082C26D004DC062C1BD0072C31D167
:102200001CE0092C22D06E2C2CD127E00120FFF7F6
:1022100003FC27E00220FFF7FFFB23E00320FFF78A
:10222000FBFB1FE00420FFF7F7FB1BE00520FFF797
:10223000F3FB17E00620FFF7EFFB13E00720FFF7A3
:10224000EBFB0FE00820FFF7E7FB0BE00920FFF7AF
:10225000E3FB07E00020FFF7DFFB03E02E20FFF7A2
:10226000DBFB00BF03E28A480078042843D1052C39
:1022700024D006DC052C3DD2DFE804F0341014181D
:102280001C00082C26D004DC062C1BD0072C31D1D6
:102290001CE0092C22D06E2C2CD127E00120FFF766
:1022A000BBFB27E00220FFF7B7FB23E00320FFF78B
:1022B000B3FB1FE00420FFF7AFFB1BE00520FFF797
:1022C000ABFB17E00620FFF7A7FB13E00720FFF7A3
:1022D000A3FB0FE00820FFF79FFB0BE00920FFF7AF
:1022E0009BFB07E00020FFF797FB03E02E20FFF7A2
:1022F00093FB00BFBBE1664800780528B2D16E2C85
:102300002DD165480068C0436449C1F8BC01084646
:10231000D0F8B001C043C1F8B00161480078C043B3
:102320005F49087008460078012807D10C232B224A
:10233000282100904220FEF770FC0FE001200C23C2
:102340002022282100904220FEF767FC01200C2368
:102350002D22282100904220FEF75FFC00BF86E17D
:102360005048007802286ED1642C02D0722C53D1D0
:1023700048E047480078401C454908700846007806
:10238000042801D10120087041480078012804D0B8
:10239000022813D0032833D121E0012010233C224E
:1023A000194600905820FEF738FC01201023202207
:1023B000302100905820FEF730FC21E0012010234E
:1023C0003C22202100905820FEF727FC01201023FA
:1023D0002022194600905820FEF71FFC10E0012033
:1023E00010233C22302100905820FEF716FC0120DB
:1023F00010232022114600905820FEF70EFC00BF4B
:1024000000BF09E02020FFF711FA01201F490870E2
:1024100000201F49087000BF00BF1D480078012838
:1024200053D1052C25D006DC052C4DD2DFE804F075
:10243000441115191D00082C36D005DC062C1CD0C3
:10244000072C41D11DE0ACE0092C31D06E2C3BD1E2
:1024500036E00120FFF7EAF936E00220FFF7E6F95F
:1024600032E00320FFF7E2F92EE00420FFF7DEF967
:102470002AE00520FFF7DAF926E00620FFF7D6F973
:1024800022E00720FFF7D2F91EE000001000002034
:102490006700002011000020BC0121420000214201
:1024A000120000200F0000200820FFF7BFF90BE00A
:1024B0000920FFF7BBF907E00020FFF7B7F903E0B9
:1024C0002E20FFF7B3F900BFD1E080480078022842
:1024D00031D10A2C2ED2DFE804F02905090D11159F
:1024E000191D21250120FFF7A1F923E00220FFF7A4
:1024F0009DF91FE00320FFF799F91BE00420FFF787
:1025000095F917E00520FFF791F913E00620FFF792
:102510008DF90FE00720FFF789F90BE00820FFF79E
:1025200085F907E00920FFF781F903E00020FFF7B4
:102530007DF900BF9BE065480078032830D10A2C64
:102540002ED2DFE804F02905090D1115191D2125EA
:102550000120FFF76BF923E00220FFF767F91FE086
:102560000320FFF763F91BE00420FFF75FF917E092
:102570000520FFF75BF913E00620FFF757F90FE09E
:102580000720FFF753F90BE00820FFF74FF907E0AA
:102590000920FFF74BF903E00020FFF747F900BFE0
:1025A00065E0052C24D006DC052C5FD2DFE804F0C2
:1025B000341014181C00082C26D004DC062C1BD068
:1025C000072C53D11CE0092C22D06E2C4ED127E0D1
:1025D0000120FFF7DCF849E00220FFF7D8F845E0DA
:1025E0000320FFF7D4F841E00420FFF7D0F83DE0E6
:1025F0000520FFF7CCF839E00620FFF7C8F835E0F2
:102600000720FFF7C4F831E00820FFF7C0F82DE0FD
:102610000920FFF7BCF829E00020FFF7B8F825E013
:102620002B480068C0432B49C1F8BC010846D0F8CC
:10263000B001C043C1F8B00127480078C043264923
:10264000087008460078012807D10C232B22282186
:1026500000900620FEF7E1FA07E001200C232D226E
:10266000282100900620FEF7D8FA00BF00BF38BD31
:1026700070B50024002500BF24E000251EE01748A7
:1026800000EB8400405D164901EB8401495D8842FE
:1026900012D0124800EB8400405D28B9114901EBCB
:1026A0008401485DFFF72FFC0D4800EB8400405D7E
:1026B0000A4901EB84014855681CC5B2042DDEDBD4
:1026C000601CC4B2042CD8DB70BD00006700002081
:1026D000BC012142000021421200002079000020AC
:1026E00047000020DA7D000808B50121102000F025
:1026F0002BFE4FF4C050ADF8000010208DF8030001
:1027000003208DF8020069468A4800F061FB012031
:10271000894908608949C1F8AC0108BD10B58548F0
:10272000406820F47040834948600846406840F49F
:102730004050486001208049091F08607F49C1F866
:10274000B001042000F073FA00207B49091F0860E3
:10275000042000F06CFA00207849C1F8B00110BDE7
:1027600010B57448406820F47040724948600846CB
:10277000406840F44050486000206F4908606F494D
:10278000C1F8AC01042000F052FA01206A49086047
:102790006A49C1F8AC01042000F049FA10BD10B537
:1027A00000246448406820F470406249486008464C
:1027B000406840F40040486001205F49091F0860FC
:1027C00000F035FA01205D49C1F8B00100F02FFAA0
:1027D00007E0601CC4B2FA2C03DDFFF7C1FF012043
:1027E00010BD5548843800680028F2D1524908606D
:1027F00000BFF5E710B500204F4908604D4840681C
:1028000020F470404B4948600846406840F440500E
:10281000486000204949C1F8AC01022000F007FAE5
:10282000012045490860022000F001FA00204349D8
:10283000C1F8B00110BD10B500203F4908603D4807
:10284000406820F470403B4948600846406840F4C6
:102850004050486001203949C1F8AC01022000F025
:10286000E6F9012034490860022000F0E0F9002078
:102870003249C1F8B00110BD70B504462D4840681A
:1028800020F470402B4948600846406840F44050AE
:102890004860002028490860002517E0E009264923
:1028A000091F08606006040E022000F0C0F9012034
:1028B0002249C1F8B001022000F0B9F900201E49F8
:1028C0000860022000F0B3F9681CC5B2082DE5DBF2
:1028D00070BD70B5054600241648406820F470406D
:1028E000144948600846406840F4004048600026AB
:1028F00016E0002010490860022000F098F901203D
:102900000E49C1F8B0016006040E0B488438006817
:1029100008B1601CC4B2012000F089F9701CC6B275
:10292000082EE6DB15B9FFF786FF01E0FFF762FF2F
:10293000204670BD00100140B0012242000022423A
:1029400010B5FFF7D1FE10BD70B504460026FFF7A5
:10295000E5FE2546E11704EB11610912A02202EB06
:102960004101C8B2FFF788FFFFF719FFE11704EB39
:1029700011610912A4EB0121C8B2FFF77DFFFFF737
:102980000EFFFFF7CBFEA120FFF776FFFFF707FF53
:102990000020FFF79EFF0646FFF7E2FE304670BDBF
:1029A00070B504460E46FFF7B9FE2546E11704EB65
:1029B00011610912A02202EB4101C8B2FFF75CFFCE
:1029C000FFF7EDFEE11704EB11610912A4EB012101
:1029D000C8B2FFF751FFFFF7E2FE3046FFF74CFFAA
:1029E000FFF7DDFEFFF7BCFE0A2000F044F970BDE2
:1029F0002DE9F04105460E461746002409E0E200A5
:102A000026FA02F2D1B22A1990B2FFF7C9FF601C70
:102A1000C4B2BC42F3DBBDE8F0812DE9F0410746CA
:102A20000C460026002509E036023919491B491ECB
:102A300088B2FFF789FF0644681CC5B2A542F3DBE4
:102A40003046BDE8F08110B5FF20FFF77DFF04465A
:102A5000552C01D1002010BD5521FF20FFF7A0FF0C
:102A6000FF20FFF771FF0446552C01D10020F2E74B
:102A70000120F0E770B506460C46154608E03046E2
:102A8000721C96B2FFF760FF04F8010B681E85B256
:102A9000002DF4D170BD70B505460C46164606E013
:102AA00021782846FFF77CFF681C85B2641C301E25
:102AB000A6F101018EB2F3D170BD000000BF7047D6
:102AC00000BF4A4A128802F04002002AF9D0C2B27E
:102AD000464B1B1D1A80704710B586B00446012175
:102AE00044F2040000F030FC4FF40070ADF8140024
:102AF00003208DF8160018208DF8170005A93C4812
:102B000000F066F94FF48060ADF8140004208DF8F1
:102B1000170005A9364800F05BF925208DF8000064
:102B200000208DF8010003208DF8020001208DF8AF
:102B30000300684600F075FE01940020ADF808001F
:102B4000ADF80A00ADF80C00ADF810000C20ADF89F
:102B50000E0001A9254800F09EFC012240F22551FB
:102B6000224800F030FD0121204800F020FD06B091
:102B700010BD10B540F225511C4800F009FE10B3FD
:102B80001A4800F085FDC4B21A48008800F40040DD
:102B9000C8B91848008800F4804060B10A2C03D0FE
:102BA00000201449088020E01248008840F40040CA
:102BB0001049088019E00D2C06D10E48008840F419
:102BC00080400C49088010E00A480088C0F30D00DE
:102BD00009490C5407480088401C064908800846EB
:102BE0000088C72801DD0020088010BD00380140A2
:102BF000000801409C0000203805002010B56FF04F
:102C0000040000F058FE2E4800682E49B0FBF1F099
:102C10002D4908700846007800EB4001C1EBC01058
:102C20004FF6FF7101EAC0002849088010BD014637
:102C3000254A12784A434FF0E0235A6100229A61F4
:102C40001A46126942F001021A6100BF4FF0E022F9
:102C5000106900F001021AB100F48032002AF5D0A8
:102C60004FF0E022126922F001024FF0E0231A61D6
:102C700000229A6170470146144A12884A434FF075
:102C8000E0235A6100229A611A46126942F0010259
:102C90001A6100BF4FF0E022106900F001021AB182
:102CA00000F48032002AF5D04FF0E022126922F0C1
:102CB00001024FF0E0231A6100229A617047000080
:102CC0001400002000127A009E000020A0000020C6
:102CD0000948804709480047FEE7FEE7FEE7FEE7B0
:102CE000FEE7FEE7FEE7FEE7FEE7FEE704480549EC
:102CF000054A064B704700009F0700083101000895
:102D000060060020600C00206008002060080020A1
:102D100010B50446CC48844208D10121042000F0BB
:102D20002DFB0021042000F029FB46E0C748844227
:102D300008D10121082000F021FB0021082000F02B
:102D40001DFB3AE0C248844208D10121102000F066
:102D500015FB0021102000F011FB2EE0BD4884423D
:102D600008D10121202000F009FB0021202000F0E3
:102D700005FB22E0B848844208D10121402000F040
:102D8000FDFA0021402000F0F9FA16E0B348844231
:102D900008D10121802000F0F1FA0021802000F00C
:102DA000EDFA0AE0AE48844207D10121801500F017
:102DB000E5FA0021A01500F0E1FA10BD10B50121DF
:102DC000084600F0DBFA0021012000F0D7FA10BD20
:102DD0002DE9F041024600250026002000230024B2
:102DE000002791F803C00CF00F0591F803C00CF018
:102DF000100CBCF1000F03D091F802C04CEA05059D
:102E000091F800C0BCF1000F31D0146800202BE015
:102E10004FF0010C0CFA00F3B1F800C00CEA030605
:102E20009E4220D183004FF00F0C0CFA03F7BC43F5
:102E300005FA03FC4CEA040491F803C0BCF1280F26
:102E400006D14FF0010C0CFA00FCC2F814C00AE0E5
:102E500091F803C0BCF1480F05D14FF0010C0CFAFA
:102E600000FCC2F810C0401C0828D1D31460B1F88F
:102E700000C0BCF1FF0F34DD546800202EE000F1EB
:102E8000080C4FF0010808FA0CF3B1F800C00CEA86
:102E900003069E4221D183004FF00F0C0CFA03F77A
:102EA000BC4305FA03FC4CEA040491F803C0BCF1EE
:102EB000280F05D100F1080C08FA0CF8C2F81480AC
:102EC00091F803C0BCF1480F07D100F1080C4FF096
:102ED000010808FA0CF8C2F81080401C0828CED36C
:102EE0005460BDE8F0814FF6FF71018002218170CE
:102EF0000421C17070470246002093680B400BB15B
:102F0000012000E0002070470146886880B27047C9
:102F100002460020D3680B400BB1012000E00020E6
:102F200070470146C86880B27047016170474161CF
:102F300070470AB1016100E041617047C1607047AC
:102F40004FF480320A4382618161826182698269C1
:102F5000704702460020434B18684FF680731840B4
:102F600040EA021008433F4B186070473E49C86171
:102F70007047F0B50A46002300240021002500F028
:102F80000046B6F1004F02D1364EF16901E0354EF0
:102F90007168C0F3034583B200F44016B6F5401FD4
:102FA00008D121F070612F4E766826F070662D4FA3
:102FB0007E6012E000F48016B6F5801F06D103266D
:102FC00006FA05F4A14341F0706106E0460D3601B2
:102FD00003FA06F6B14341F0706122B1460D3601A5
:102FE00003FA06F6314300F00046B6F1004F02D175
:102FF0001C4EF16101E01B4E7160F0BD30B5002246
:103000008B071C0F0F2303FA04F2164B08338C10A6
:1030100053F824309343134C08348D1044F8253072
:1030200023468C1053F824308C07240F00FA04F444
:1030300023430C4C08348D1044F8253030BD0A4928
:10304000DC3108607047000000080140000C0140BE
:10305000001001400014014000180140001C014014
:10306000002001400000014000002042DF480068CD
:1030700040F00100DD49086008464068DC4908402E
:10308000DA49486008460068DA490840D7490860CC
:103090000846006820F4802008600846406820F454
:1030A000FE0048604FF41F0088607047CF490968F0
:1030B00021F48031CD4A11601146096821F4802144
:1030C0001160B0F5803F03D0B0F5802F0ED106E03F
:1030D000C649096841F48031C44A116007E0C34918
:1030E000096841F4A021C14A116000E000BF00BF9F
:1030F000704710B501460022002300204A11012A22
:1031000002D1BA4C236806E0022A02D1B74C236AE6
:1031100001E0B64C636A01F01F02012494401C4098
:103120000CB1012000E0002010BD38B50020009057
:103130000024002500BF3120FFF7DBFF0546009883
:10314000401C00900098B0F5A06F01D0002DF2D087
:103150003120FFF7CEFF08B1012400E00024204613
:1031600038BD01460020A14A106820F0F80040EA6E
:10317000C10010607047A0490860704702460020F7
:103180009A4B586820F47C1042EA01031843974B8D
:103190005860704798490866704701460020934A76
:1031A000506820F003000843506070478F48406823
:1031B00000F00C007047014600208C4A506820F057
:1031C000F00008435060704701460020874A50686D
:1031D00020F4E06008435060704701460020834AB5
:1031E000506820F4605040EAC1005060704729B137
:1031F0007E4A527A02437D4B5A7204E07B4A527AED
:1032000082437A4B5A7270477B49D83108607047C5
:1032100001460020754A506820F440400843506041
:1032200070470021714A20321170704A82F82010D4
:10323000012802D004280AD104E001216B4A20327F
:10324000117005E00521694A2032117000E000BFCD
:1032500000BF70476949086070476449096A0143C3
:10326000624A11627047654944390860704730B559
:1032700000210022002400235C4D6D6805F00C0144
:1032800021B1042905D0082923D105E05C4D056052
:1032900022E05B4D05601FE0544D6D6805F470122F
:1032A000524D6D6805F48034022505EB92421CB93D
:1032B000544D554305600BE04C4D6D6805F40035E9
:1032C0001DB1504D5543056002E04D4D554305601D
:1032D00002E04B4D056000BF00BF444D6D6805F036
:1032E000F0010909484D6B5C0568DD4045603F4DC4
:1032F0006D6805F4E061090A434D6B5C4568DD408B
:1033000085603A4D6D6805F46051C90A3E4D6B5CAD
:103310004568DD40C560354D6D6805F44041890B59
:103320003A4D6B5CC568B5FBF3F5056130BD29B15D
:103330002E4A526902432D4B5A6104E02B4A5269CE
:1033400082432A4B5A61704729B1284A9269024345
:10335000264B9A6104E0254A92698243234B9A6185
:10336000704729B1214AD2690243204BDA6104E057
:103370001E4AD26982431D4BDA61704729B11B4A4C
:10338000D2680243194BDA6004E0184AD2688243DB
:10339000164BDA60704729B1144A12690243134B85
:1033A0001A6104E0114A12698243104B1A61704796
:1033B00012494039086070470F49C86470470B498B
:1033C000C87170470948406A40F0807007494862F8
:1033D000704701460020054A92680A400AB1012060
:1033E00000E00020704701498872704700100240D9
:1033F0000000FFF8FFFFF6FE000042428004424258
:1034000000127A0000093D00A2000020B200002056
:1034100010B50446FB48844209D101218803FFF717
:10342000ADFF00214FF48040FFF7A8FF32E0F648DF
:10343000844209D101214804FFF7ADFF00214FF478
:103440000030FFF7A8FF25E0F048844209D10121B0
:103450008804FFF7A0FF00214FF48020FFF79BFFB7
:1034600018E0EB48844209D10121C804FFF793FF1B
:1034700000214FF40020FFF78EFF0BE0E548844267
:1034800008D101210805FFF786FF00214FF48010C5
:10349000FFF781FF10BD2DE9F04786B005460E46C7
:1034A0000024A24600BFA1460027B08900B100BF9A
:1034B0002F462C8A4CF6FF700440F08804432C827F
:1034C000AC894EF6F3100440B08831890843718905
:1034D00008430443AC81AC8A4FF6FF400440B089F6
:1034E0000443AC8201A8FFF7C2FEC648874202D15E
:1034F000DDF810A001E0DDF80CA0A88900F4004080
:1035000040B10AEBCA0000EB0A1031684900B0FB79
:10351000F1F807E00AEBCA0000EB0A1031688900F5
:10352000B0FBF1F86420B8FBF0F00401200964213D
:1035300001FB1089A88900F4004040B1322000EB63
:10354000C900B0FBF1F000F00700044308E03220AE
:1035500000EB09106421B0FBF1F000F00F00044310
:103560002C8106B0BDE8F0874FF4165101600021B0
:103570008180C18001810C214181002181817047BE
:1035800010B502460020108A4FF2FF0318400B8846
:103590004C8823438C882343CC88234318431082D0
:1035A00010BD0021018041808180C180704721B120
:1035B000828942F40052828104E082894DF6FF73D1
:1035C0001A4082817047F0B503460024002600258A
:1035D000002040F66A17B94200D100BF1846C1F377
:1035E000421401F01F06012707FA06F5012C01D14C
:1035F0000C3004E0022C01D1103000E014301AB17C
:1036000007682F43076002E00768AF430760F0BD1B
:103610001AB1838A0B43838202E0838A8B438382BD
:103620007047028A4FF6F0731A400282028A0A43F8
:103630000282704782894FF2FF731A408281828929
:103640000A438281704721B1828942F0020282815D
:1036500004E082894FF6FD731A4082817047028A26
:103660004FF6DF731A400282028A0A4302827047D1
:1036700021B1028A42F48042028204E0028A4BF6BF
:10368000FF731A4002827047C1F3080282807047BC
:1036900001468888C0F308007047818941F0010124
:1036A00081817047028BD2B20283028B42EA0122EF
:1036B00002837047028B02F47F420283028B0A432B
:1036C0000283704721B1828A42F02002828204E0A4
:1036D000828A4FF6DF731A408282704721B1828A54
:1036E00042F01002828204E0828A4FF6EF731A40A1
:1036F0008282704721B1828A42F00802828204E00D
:10370000828A4FF6F7731A408282704721B182890C
:1037100042F40042828103E08289C2F30E02828178
:10372000704721B1828A42F40062828204E0828A78
:103730004FF2FF731A4082827047828A4FF6FB7302
:103740001A408282828A0A438282704721B1828A29
:1037500042F00202828204E0828A4FF6FD731A4030
:103760008282704702460020B1F5007F00D100BF81
:1037700013880B400BB1012000E00020704701F4DA
:103780000072B2F5007F00D100BFCA4302807047CB
:1037900070B50246002400230025002040F66A167A
:1037A000B14200D100BFC1F3421501F01F03012651
:1037B00006FA03F3012D02D19689334006E0022D6B
:1037C00002D1168A334001E0968A33400C1201265A
:1037D00006FA04F41688344013B10CB1012000E05D
:1037E000002070BD10B50022002340F66A14A142EB
:1037F00000D100BF0A1201249440A3B2DC4304802C
:1038000010BD000000380140004400400048004066
:10381000004C00400050004031490143314A1160E2
:10382000704770B5002100230F22C47804B32D4CDB
:10383000246804F4E064C4F5E064210AC1F10403DF
:10384000CA40447804FA03F1847814402143090102
:10385000254C0678A155047804F01F050124AC40DE
:1038600005786D11AD0005F1E025C5F8004109E0CE
:10387000047804F01F050124AC401C4D0678761135
:1038800045F8264070BD1A4A0A400243154B1B1FDB
:103890001A60704739B1134A121D12680243114B66
:1038A0001B1D1A6006E00F4A121D126882430D4B61
:1038B0001B1D1A607047042808D14FF0E0210969E8
:1038C00041F004014FF0E022116107E04FF0E021E8
:1038D000096921F004014FF0E022116170470000F6
:1038E0000000FA050CED00E000E400E080E100E0FB
:1038F00080FFFF1F10B50446FE48844208D1012115
:10390000C014FFF73BFD0021E014FFF737FDC4E0D2
:10391000B4F1804F08D101210846FFF73CFD00219A
:103920000120FFF738FDB8E0F348844208D10121B7
:103930000220FFF730FD00210220FFF72CFDACE054
:10394000EE48844208D101210420FFF724FD002124
:103950000420FFF720FDA0E0E948844208D10121BE
:103960000820FFF718FD00210820FFF714FD94E060
:10397000E448844208D101211020FFF70CFD00210A
:103980001020FFF708FD88E0DF48844208D10121BC
:103990002020FFF700FD00212020FFF7FCFC7CE049
:1039A000DA48844208D101214014FFF7E7FC0021E6
:1039B0006014FFF7E3FC70E0D548844209D101218F
:1039C000C804FFF7DBFC00214FF40020FFF7D6FC12
:1039D00063E0D048844209D101210805FFF7CEFCFD
:1039E00000214FF48010FFF7C9FC56E0CA4884421A
:1039F00009D101214805FFF7C1FC00214FF4001057
:103A0000FFF7BCFC49E0C548844208D101214020B1
:103A1000FFF7C1FC00214020FFF7BDFC3DE0C0489E
:103A2000844208D101218020FFF7B5FC00218020CD
:103A3000FFF7B1FC31E0BB48844208D10121801579
:103A4000FFF7A9FC0021A015FFF7A5FC25E0B6486B
:103A5000844209D101210804FFF790FC00214FF4B2
:103A60008030FFF78BFC18E0B048844209D1012177
:103A70004804FFF783FC00214FF40030FFF77EFC81
:103A80000BE0AB48844208D101218804FFF776FCA3
:103A900000214FF48020FFF771FC10BD0022028846
:103AA000944B98420ED0994B98420BD0B0F1804F76
:103AB00008D0914B984205D0904B984202D0904B41
:103AC000984204D14FF68F731A404B881A438D4B9E
:103AD000984207D08C4B984204D04FF6FF431A40CF
:103AE000CB881A4302808B8883850B880385814BA2
:103AF00098420BD0854B984208D08B4B984205D00A
:103B00008A4B984202D08A4B984201D10B7A0386A5
:103B100001238382704770B5002400220023058CA6
:103B20004FF6FE7635400584028C8388048B4FF671
:103B30008F752C40B51E2C400D882C43751E2A40D5
:103B40000D892A434D882A436A4DA8420BD06F4DF8
:103B5000A84208D0744DA84205D0744DA84202D0A6
:103B6000734DA84213D14FF6F7752A404D892A4369
:103B70004FF6FB752A408D882A434FF6FF652B4090
:103B80004FF6FF552B408D892B43CD892B438380E6
:103B90000483CD888586028470BD70B50024002220
:103BA0000023058C4FF6EF7635400584028C838820
:103BB000048B48F6FF752C404FF6FF452C400D88CE
:103BC0004FF6FF7606EA05252C434FF6DF752A40AF
:103BD0000D8906EA05152A434D8806EA05152A438C
:103BE000444DA84202D0494DA8421DD14FF67F75E1
:103BF0002A404D894FF6FF7606EA05152A434FF60F
:103C0000BF752A408D8806EA05152A434FF6FF3511
:103C10002B404FF2FF752B408D8906EA85052B431B
:103C2000CD8906EA85052B4383800483CD880587EB
:103C3000028470BD70B5002400220023058C4FF66D
:103C4000FF6635400584028C8388848B4FF68F7520
:103C50002C404FF6FC752C400D882C434FF6FF5539
:103C60002A400D894FF6FF7606EA05252A434D883E
:103C700006EA05252A431F4DA84202D0234DA8423B
:103C80001DD14FF2FF752A404D894FF6FF7606EAA7
:103C900005252A434FF6FF352A408D8806EA05257B
:103CA0002A434EF6FF752B404DF6FF752B408D894C
:103CB00006EA05152B43CD8906EA05152B438380BB
:103CC0008483CD888587028470BD70B5002200236F
:103CD0000024058C4EF6FF7635400584038C8488DD
:103CE000828B48F6FF752A404FF6FF452A400D8823
:103CF00020E00000002C01400004004000080040CB
:103D0000000C00400010004000140040003401404E
:103D1000004C014000500140005401400018004098
:103D2000001C0040002000400040014000440140D1
:103D3000004801404FF6FF7606EA05252A434DF676
:103D4000FF752B400D8906EA05352B434D8806EAA1
:103D500005352B43FA4DA84202D0FA4DA84208D1AE
:103D60004BF6FF752C408D894FF6FF7606EA8515D8
:103D70002C4384808283CD88A0F84050038470BD9A
:103D8000828B4FF2FF331A408283828B4FF6FF7390
:103D900003EA01231A4382837047F0B50C461546A7
:103DA000002200210026078C4EF6FF7C07EA0C0754
:103DB0000784828B018C4FF6FF7707EA043640F6C2
:103DC000FF473A404FF6FF7707EA05273A434FF699
:103DD000FF7707EA03373A43D94FB8420ED0D94F9D
:103DE000B8420BD0B0F1804F08D0D74FB84205D0C1
:103DF000D64FB84202D0D64FB84206D14DF6FF7723
:103E0000394046F48057394305E047F6FF573940BB
:103E100044F48057394382830184F0BD828B4FF68E
:103E2000F3731A408283828B0A4382837047F0B512
:103E30000C461546002200210026078C4FF6FF6C29
:103E400007EA0C070784828B018C4FF6FF7707EA9D
:103E500004264FF60C773A404FF6FF7707EA031730
:103E60002F433A43B64FB8420ED0B64FB8420BD0AC
:103E7000B0F1804F08D0B44FB84205D0B34FB8422C
:103E800002D0B34FB84206D14FF6FF57394046F43F
:103E90008077394305E04FF2FF57394044F480778B
:103EA000394382830184F0BD028B4FF2FF331A4005
:103EB0000283028B4FF6FF7303EA01231A43028346
:103EC0007047F0B50C461546002200210026078CED
:103ED0004FF6EF7C07EA0C070784028B018C4FF644
:103EE000FF7707EA041640F6FF473A404FF6FF77A0
:103EF00007EA03373A434FF6FF7707EA05273A43C5
:103F00008F4FB8420ED08F4FB8420BD0B0F1804FD8
:103F100008D08D4FB84205D08C4FB84202D08C4F9C
:103F2000B84206D14FF6DF77394046F010073943E3
:103F300005E04FF65F77394044F0100739430283BC
:103F40000184F0BD028B4FF6F3731A400283028B9B
:103F50000A4302837047F0B50C4615460022002143
:103F6000068C4FF6FE773E400684028B018C4FF69E
:103F70000C7632407E1C06EA03162E433243704E06
:103F8000B0420ED06F4EB0420BD0B0F1804F08D08F
:103F90006D4EB04205D06D4EB04202D06C4EB04274
:103FA00006D14FF6FD76314044F00106314305E07D
:103FB0004FF6F576314044F0010631430283018427
:103FC000F0BD70B505460C465D4885420ED05D4893
:103FD00085420BD0B5F1804F08D05B48854205D0B3
:103FE0005A48854202D05A48854200D100E000BFBD
:103FF000208850B92389A28861882846FFF7ABFF43
:10400000E1882846FFF79EFF25E0208804280AD192
:104010002389A28861882846FFF753FFE188284654
:10402000FFF742FF17E0208808280AD12389A288D9
:1040300061882846FFF7FBFEE1882846FFF7EEFE81
:1040400009E02389A28861882846FFF7A6FEE18857
:104050002846FFF795FE70BD2DE9F04105460C4658
:1040600000260127608808B9022600E00026A08803
:10407000012801D1022700E001272088A0B9238967
:10408000A28861882846FFF766FFE1882846FFF787
:1040900059FF23893A4631462846FFF712FFE18847
:1040A0002846FFF701FF13E02389A288618828468C
:1040B000FFF707FFE1882846FFF7F6FE23893A4617
:1040C00031462846FFF747FFE1882846FFF73AFFC9
:1040D000BDE8F0810A884B881A438B881A43CB8845
:1040E0001A430B891A434B891A438B891A43A0F848
:1040F000442070474FF6FF71818000210180C1800C
:104100004180017270470021018041808180C1801F
:10411000018141818181C1817047002101804180FD
:10412000012181800021C18001817047002101802F
:1041300041808180C180018141818181704700007F
:10414000002C014000340140000400400008004001
:10415000000C004021B1028842F00102028004E01C
:1041600002884FF6FE731A400280704731B1B0F8F2
:10417000442042F40042A0F8442005E0B0F8442076
:10418000C2F30E02A0F8442070471AB183890B4392
:10419000838102E083898B438381704781827047EA
:1041A00041EA0203A0F8483070471AB183890B43F3
:1041B000838102E083898B438381704701894FF6B5
:1041C000F8721140018170470A46002101894FF6BB
:1041D0008F73194011430181704730B504460D4675
:1041E00029462046FFF7F0FF208940F00700208194
:1041F00030BD2DE9F04104460D4616461F46602DA0
:1042000006D13B46012231462046FFF75AFE05E023
:104210003B46012231462046FFF79DFE29462046B7
:10422000FFF7D2FF208940F007002081BDE8F08130
:1042300030B50C4600210189C9B24FF6FF7505EA79
:104240000325154325432943018130BD2DE9F04164
:1042500005460E4617469846002443463A463146E0
:104260002846FFF7E5FF2C894FF6F870044044F02C
:1042700007044FF68F70044044F070042C81BDE8B1
:10428000F081F0B504460D4616461F463B463246C1
:1042900029462046FFF7CCFF208940F4804020814A
:1042A000F0BD0185828270470A46002101884FF6E1
:1042B0008F731940114301807047F0B50C461546C5
:1042C0001E460021002200230189028B038C4FF639
:1042D000F877394021434FF6FC473A4040F2011746
:1042E0003A434FF6DD773B404FF6FF7707EA061774
:1042F0002F433B43018102830384F0BD0A46002122
:10430000018B4FF68F7319401143018370470A46A2
:104310000021018B48F6FF7319404FF6FF7303EA43
:1043200002231943018370470A460021818B4FF60F
:104330008F7319401143818370470A460021818B96
:1043400048F6FF7319404FF6FF7303EA022319433F
:104350008183704721B1028842F08002028004E02C
:1043600002884FF67F731A400280704721B182881D
:1043700042F00402828004E082884FF6FB731A4008
:104380008280704721B1828842F00802828004E076
:1043900082884FF6F7731A408280704721B1828875
:1043A00042F00102828004E082884FF6FE731A40D8
:1043B000828070470A460021018B4FF6F77319403F
:1043C0001143018370470A460021018B4FF2FF73AE
:1043D00019404FF6FF7303EA022319430183704724
:1043E0000A460021818B4FF6F773194011438183F0
:1043F00070470A460021818B4FF2FF7319404FF638
:10440000FF7303EA02231943818370470A460021A0
:10441000018B4FF6FB7319401143018370470A4625
:104420000021018B4FF6FF3319404FF6FF7303EA6B
:1044300002231943018370470A460021818B4FF6FE
:10444000FB7319401143818370470A460021818B19
:104450004FF6FF3319404FF6FF7303EA0223194367
:10446000818370470A460021018B4FF67F73194004
:104470001143018370470A460021018BC1F30E01ED
:104480004FF6FF7303EA02231943018370470A467C
:104490000021818B4FF67F73194011438183704750
:1044A0000A460021818BC1F30E014FF6FF7303EA28
:1044B00002231943818370470A460021018C4FF67D
:1044C000FD7319401143018470470A460021018C95
:1044D0004FF6F77319401143018470470A460021D3
:1044E000018C4FF6DF7319404FF6FF7303EA021396
:1044F0001943018470470A460021018C4FF67F73EF
:1045000019404FF6FF7303EA021319430184704701
:104510000A460021018C4FF6FF5319404FF6FF73F6
:1045200003EA02231943018470470A460021018CE3
:104530004FF2FF7319404FF6FF7303EA022319434A
:10454000018470470A460021018C4DF6FF73194023
:104550004FF6FF7303EA023319430184704730B505
:10456000002301248C40A3B2048C9C430484048C5B
:1045700002FA01F5ADB22C43048430BD30B50023FE
:1045800004248C40A3B2048C9C430484048C02FA5F
:1045900001F5ADB22C43048430BD70B50346002054
:1045A00000241846183001258D40ACB21D8CA5435F
:1045B0001D8409B1082909D100EB6100056825F0C7
:1045C000700505600568154305600EE00D1FC5F315
:1045D0004E052844056825F4E045056005684FF65A
:1045E000FF7606EA02263543056070BD21B10288D8
:1045F00042F00202028004E002884FF6FD731A4086
:104600000280704721B1028842F00402028004E077
:1046100002884FF6FB731A400280704721B18288EE
:1046200042F08002828004E082884FF67F731A4055
:104630008280704702884FF6F7731A400280028822
:104640000A430280704782884FF68F731A40828037
:1046500082880A438280704702894FF6F8731A40B5
:10466000028102890A430281704702894FF67F73F3
:104670001A40028102890A4302817047818470478F
:1046800081857047818670470187704781877047B1
:10469000A0F84010704702884FF6FF431A4002808E
:1046A00002880A43028070470146888E704701469F
:1046B000088F70470146888F70470146B1F8400067
:1046C00070470146888C70470146088D7047024646
:1046D0000020138A0B400BB1012000E0002070473E
:1046E000CA430282704730B50246002000230024EE
:1046F000158A05EA0103958905EA010413B10CB195
:10470000012000E0002030BDCA430282704770479C
:104710000FB4044910B503AA029800F067FB10BC5F
:104720005DF814FB980000200FB41CB5074B06AAD7
:104730007B4469460090059800F03FFB00206946E5
:1047400000F04EFB1CBC5DF814FB0000AD06000041
:104750002DE9F0410646002410687529314616A55A
:1047600010D0AFF30080002802DA404213A507E022
:1047700031688A0701D512A502E0490704D511A5C1
:10478000012401E0AFF3008000210A2206F1240792
:1047900009E0B0FBF2FCB0FBF2F302FB1C0030308E
:1047A00078541846491C0028F3D123462A4630463F
:1047B000BDE8F04100F093B8000000002D000000BB
:1047C0002B000000200000002DE9F0474FF0000A08
:1047D00089460446C0F820A02046E16888470028A2
:1047E00076D0252806D0D4E901219047206A401CC4
:1047F0002062F1E7E168204600258847C4F81CA044
:1048000006460027C4F818A02A2E09D0304601F029
:104810004DF838B304EB8708303EC8F8186019E04B
:1048200059F8041B204604EB87029161E168884730
:10483000012F064618D1E069002820DA25F020056E
:104840001DE0D8F8180000EB800006EB400030387F
:10485000C8F818002046E1688847064601F026F8A7
:104860000028EED1012F0AD02E2E08D12046E16873
:1048700088477F1C0646022F45F02005C4DBA0694F
:10488000002803DA404245F00105A061E80701D0A5
:1048900025F01005B6B1A6F14100192802D820363E
:1048A00045F400654A463146204625604D46FBF7F3
:1048B00079FC58B1012806D0ED1D25F0070000F164
:1048C000080989E704E005F1040985E730468AE72D
:1048D000206ABDE8F08770477047704770472DE940
:1048E000F0470D4699469246044600F124080168B7
:1048F000880604D5E06921F01001216000E0012064
:10490000A84201DD471B00E00027A1697A1902EBEC
:104910000900081AA0612078C00602D42046AFF32F
:104920000080002608E0D4E901211AF8060090472B
:10493000206A401C761C20624E45F4DB2078C006BD
:104940000AD52046AFF3008006E0D4E901213020EB
:104950009047206A401C2062381EA7F10107F4DC52
:1049600007E0D4E9012118F805009047206A401CAF
:104970002062281EA5F10105F3DC2046AFF300807C
:104980002078000602D50220BDE8F0870120FBE771
:1049900070472DE9FF4F0C461E464FF0FF378BB096
:1049A000D2E90001DDF860800A908A46C1F30A5519
:1049B00005B93D46002108464FF00000BAF1000F4E
:1049C00000F4400005DA00EB80004FF4400101EAFA
:1049D00050004FEA9059B9F1010F00DDB9460A982D
:1049E00050EA4A000ED044F61050A5F2FF35454378
:1049F0002F14B8F1000F1ED07542291E1EDDC9F11B
:104A000000021CE0B8F1010F4FF0000001D030218E
:104A100003E0F24305E02154401CB042FBDB30468A
:104A20000022002121540B99C1F80880C1E900201F
:104A30000FB0BDE8F08FBD1B6D1CDEE74A4600DA03
:104A4000694206A800F06EFA06AB93E8070003ABD4
:104A500083E8070050460A9900F04CFB8DE80700F8
:104A6000A0F500501F3800900398002D0ADD42F297
:104A70001F014A460844002303A90390684600F03A
:104A8000B5FD09E0A0F500504A461F38002303A9F0
:104A90000390684600F0BFFD8DE807000004000C9D
:104AA00003D04FF0FF30410800E01046B8F1000F8E
:104AB00003D00022009215461EE0751E05D400F0BA
:104AC000ABF9303262556D1EF9D5B3460122084369
:104AD00002D000227F1C04E02078302801D100227F
:104AE0007F1E002A099784D01DE0112D07DA00F0FF
:104AF00093F9303262556D1C50EA0102F5D108433A
:104B000002D00098C8B10EE00021681E05E0235CC9
:104B1000625C63542254401E491C8142F7DBAB4661
:104B2000A81B401E0990002004F80B000B98099A5E
:104B3000C0F80880C0E9002B7AE711264FF0000882
:104B400057E72DE9F04F88460446D21D22F00701B1
:104B500091B0D1E90001CDE90A0100F093FE0246CF
:104B60000B98C00F01D02D2007E02068810701D5E8
:104B70002B2002E0202101EAC000032A099001D085
:104B8000072A05DB03464146204600F08BF90BE17E
:104B90002078800601D5E06900E00620B8F1650FB5
:104BA000814606D0B8F1660F18D0B8F1670F70D102
:104BB00031E00020B9F1110F009001DB112301E079
:104BC00009F101030AAA01A90CA8FFF7E2FEDDE939
:104BD0000C70002609F10105834647E001204B4691
:104BE00000904FF000470AAA01A90CA8FFF7D1FED8
:104BF000DDE90DB00C995D46002610B909F1010000
:104C00000D18B9EB050003D4C0F1FF3609F1010519
:104C1000A5EB09002BE0B9F1010F01DA4FF0010912
:104C20000020B9F1110F0090484601DD112300E08A
:104C300003460AAA01A90CA8FFF7ABFEDDE90C7038
:104C40004D4600268346207800070AD4AB4500DA9B
:104C50005D4601A8012D04DD411911F8011C302920
:104C600007D04F4502DA17F1040F04DA012082461B
:104C70000FE06D1EEEE7002F02DCED1B3E4403E06B
:104C8000781CA84200DD7D1CB81B00F1010A4FF022
:104C900000472078000703D4AA4501DB4FF0FF3A14
:104CA0000021B7F1004F0DF143088DF8431024D0D7
:104CB00002202B23002F01DA7F422D230A21021E1E
:104CC000A0F1010000DC5FB197FBF1FC97FBF1F272
:104CD00001FB1C7C17460CF1300C08F801CDEEE707
:104CE000A8F1010003702188090501D5452100E0E4
:104CF0006521A0F1010800F8011C09980FA9A1EB9A
:104D00000807FF1D00B10120411901EBEA70A169FC
:104D10003844081A401EA0612078C00602D42046FC
:104D2000AFF30080099828B1D4E901219047206AA7
:104D3000401C20622078C00622D52046AFF30080B8
:104D40001EE0002E04DBB34502DD01A8805D00E01B
:104D50003020D4E901219047206A401C2062761C53
:104D6000AAF101005FEA000A0AD100F051F8C06818
:104D70000168405CD4E901219047206A401C206210
:104D8000281EA5F10105DCDC07E0D4E9012118F8B3
:104D9000010B9047206A401C2062381EA7F10107D2
:104DA000F3DC2046AFF30080032011B041E60000A1
:104DB00001694A1C02610878704700B58FB0CDE9DF
:104DC00001310021059105497944CDE903101146CF
:104DD0006846FFF7F9FC0FB000BD0000E5FFFFFFDC
:104DE0000A6802F8010B0A6070470000074B70B5B3
:104DF0000D467B44FFF7E1FF0446284600F004F926
:104E000010B14FF0FF3070BD204670BDCBDCFFFF0E
:104E1000004870472006002030B5B0F10A024FEA82
:104E2000900E71F100034EEA817EB0EB0E0061EB53
:104E300091014FEA101E4EEA017E10EB0E0041EB8D
:104E400011114FEA102E4EEA016E10EB0E0041EBED
:104E500011214FEA104E4EEA014E10EB0E0041EBCD
:104E60001141401841F100014FEAD00040EA417081
:104E70004FEAD10110EB80054FEA810444EA9074B7
:104E800044EB01046D1944EB0404521BA3414FF0A1
:104E9000000348BF0A3200D530BD401C41F100017B
:104EA00030BD00002DE9F0411F460446032601688D
:104EB000072A01F4006004DB08B116A505E016A579
:104EC00003E008B115A500E015A521F01000206051
:104ED000A069C01EA0610FB1401EA0612046AFF3C3
:104EE00000804FB1D4E9012138469047206A401C28
:104EF0002062C01C206206E0206AFAE7D4E90121A2
:104F000015F8010B9047761EF8D22046AFF30080CB
:104F1000BDE8F0814E414E006E616E00494E460084
:104F2000696E66002DE9F047814616468AB035481D
:104F300078440DC88DE80D0032487844801C03ACDD
:104F40000DC884E80D0041F69B300844372190FBE2
:104F5000F1F290FBF1F5A5F1800501FB12041B3C79
:104F600002D56442012000E00020DFF898A08046CE
:104F70000027FA44AAF1BE0A0EE0E0070AD0324642
:104F8000684607EB470101230AEB810100F043FB70
:104F90008DE8070064107F1C002CEED1194F7F4470
:104FA000AE3F19E0E80715D007EB04100DF1180A21
:104FB00090E80E008AE80E00C068F04201D198190E
:104FC00008903246012306A903A800F024FB03AB96
:104FD00083E807006D10641C002DE3D14FF001033E
:104FE00032466946B8F1000F03A802D000F0FEFA7D
:104FF00001E000F010FBC9E90001C9F808200AB07F
:10500000BDE8F087342F0000007B00F0800070477F
:1050100000487047000600207546FFF7F9FFAE46CE
:1050200005006946534620F00700854618B020B5B4
:10503000FDF75CFEBDE820404FF000064FF0000792
:105040004FF000084FF0000B21F00701AC46ACE830
:10505000C009ACE8C009ACE8C009ACE8C0098D469D
:10506000704710B50446AFF300802046BDE81040FD
:10507000FBF7B5B84FF0013C50F8042B51F8043B56
:105080009A4221D1A2EB0C03934313EACC1317D11C
:1050900050F8042B51F8043B9A4215D1A2EB0C03B3
:1050A000934313EACC130BD150F8042B51F8043B73
:1050B0009A4209D1A2EB0C03934313EACC13DBD041
:1050C0004FF00000704700BFD01A01BAB1FA81F169
:1050D00001F0180122FA01F0CB40C1F12001DBB24E
:1050E000C0B2C01A2CFA01F3D11A914311EAC311CC
:1050F000E6D170475FEA400C08BF91F0000F4FEA1D
:105100008C234FEAC12243EA51514FEA1C5018BF89
:1051100000F5F0404FEA300018BF41F000415FEA6F
:105120006C5C00F02980BCF1FF3F08BF40F080407C
:105130007047130C06BF12044FF0100C4FF0000C18
:10514000130E04BF12020CF1080C130F04BF12015E
:105150000CF1040C930F04BF92000CF1020CD30F5E
:1051600004BF52000CF1010C11464FF00002A0F1F7
:105170001F00A0EB0C00704711F0004F08BF7047F4
:1051800031F000413FF4D5AF0B0C06BF09044FF0DE
:10519000100C4FF0000C0B0E04BF09020CF1080CB0
:1051A0000B0F04BF09010CF1040C8B0F04BF890025
:1051B0000CF1020CCB0F04BF49000CF1010CCCF137
:1051C0002003A0EB0C0022FA03F302FA0CF241EAEE
:1051D000030100F10100704720F07F4C80EA0300DA
:1051E00023F07F47ACEB070303F57C5300F000404E
:1051F00003F1FF032DE980494FEA154B09B44FEA4B
:10520000144325EA0B4E24EA03480FF2042606EB6A
:10521000132749083E785FEA320203FB0667C7F5A9
:10522000000707FB06F64FEA54374FEAD64606F169
:10523000020607FB066CCCF1005C4FEA1C472CEA27
:10524000074C07FB06F40CFB06F504EB15464FEA8A
:10525000961634BF00204FF000404FEAD13706FBCE
:1052600007FC4FEA1C4C0CFB0BF7D21B03FB0CF7A3
:1052700061EB07010CFB0EF7B0EB074072EB174236
:105280000CFB08F734BFA2EB0742B2EB074261EB1D
:1052900017414FEA0C444FEA910706FB07FC4FEA1F
:1052A0001C4C0CFB0BF7B0EBC74072EB573203FB07
:1052B0000CF734BFA2EBC742B2EBC74261EB5731E8
:1052C0000CFB0EF7B0EBC70072EB57720CFB08F744
:1052D00034BFA2EBC702B2EBC70261EB5771039F69
:1052E0004FEA816141EA921104EBCC044FEAD137D5
:1052F0004FEA826206FB07FC42EA90124FEA8060A6
:105300004FEA1C4C0CFB0BF7D21B03FB0CF761EBB9
:1053100007010CFB0EF7B0EB074072EB17420CFBDA
:1053200008F734BFA2EB0742B2EB074261EB17412B
:105330004FEA8C554FEA910704EB9C2406FB07FCCF
:105340004FEA1C4C0CFB0BF7B0EBC74072EB57322B
:1053500003FB0CF734BFA2EBC742B2EBC74261EBD1
:1053600057310CFB0EF7B0EBC70072EB57720CFB1A
:1053700008F734BFA2EBC702B2EBC70261EB57716B
:1053800015EB4C254FEA816141EA92114FEA8262A6
:105390004FEAD13742EA901206FB07FC44F10004C1
:1053A0004FEA80604FEA1C4C0CFB0BF7D21B03FB4F
:1053B0000CF761EB07010CFB0EF7B0EB074072EB4B
:1053C00017420CFB08F734BFA2EB0742B2EB0742CF
:1053D00061EB174115EB1C154FEA813141EA92410F
:1053E0004FEA823242EA90424FEA80304FEA0C762E
:1053F00044F1000448EA03434EEA0B484FF0000E24
:10540000B2EB080C71EB030724BF624639464EEB42
:105410000E0E4FF0000B0018524149414BEB0B0BA5
:10542000B2EB080C71EB03077BF1000B24BF624663
:1054300039464EEB0E0E4FF0000B00185241494119
:105440004BEB0B0BB2EB080C71EB03077BF1000B82
:1054500024BF624639464EEB0E0E51EA020718BFD2
:1054600046F0010616EB0E7655F1000254F10001EC
:1054700003D5BDE88901BDE80088BDE88901BDE824
:105480000048B619524141EB0101A3F101037047F5
:1054900080807F7E7D7C7B7A797877767675747371
:1054A000727171706F6E6E6D6C6C6B6A6A69686830
:1054B000676666656464636362616160605F5F5EC6
:1054C0005E5D5D5C5C5B5B5A5A595958585757563C
:1054D00056555555545453535252525151505050A1
:1054E0004F4F4F4E4E4D4D4D4C4C4C4B4B4B4A4AF3
:1054F0004A49494948484847474747464646454537
:10550000454444444443434343424242424141416F
:10551000002B9C4630D477002BD01CB54FEA3707C0
:1055200003B44FF010004FF01001BAF1000F06D095
:10553000BCF1000FDCBF40F0080040F008014FF064
:1055400000000FBCBDE810400BF1010BBBF1010FD7
:1055500008BF5FEA170722BF12F1010211F1010132
:105560004FF0004143F1000300F0004043EA000027
:105570007047F9D35708D0E746EA064613F1400FC3
:105580004FEA16461FDD13F1200FDFBF16430A4610
:10559000002120335B42BED0C3F1200746EA064615
:1055A00002FA07F74FEA164646EA0706C3F1200754
:1055B00022FA03F201FA07F721FA03F14FF0000390
:1055C00042EA0702A7E746EA020646EA06464FEA2B
:1055D000164646EA0106BCBF46EA0646360C4FF0C0
:1055E00000034FF000024FF0000194E72DE9804CDA
:1055F0009A46934670B491E8380007C831EA400CE7
:1056000048BF34EA430C03D5FFF7E6FDFFF780FF00
:10561000F0BCBDE8008C2DE9804C9A46934670B4EE
:1056200091E8380007C810F0804F08BF13F0804F92
:1056300003D100F005F8FFF76BFFF0BCBDE8008C6C
:1056400020F07F4780EA030023F07F4C07EB0C0338
:10565000A3F57C5300F00040A3F1FE0392F0000F8D
:1056600000F0B38095F0000F00F077802DE901493C
:105670004FEA11404FEA144621EA004800FB06FCBD
:1056800024EA064708FB06F607FB08F800FB07F7C5
:1056900018EB06484CEB164C4FEA124B18EB074838
:1056A0004FEA15464CEB174022EA0B4E0BFB06FC6B
:1056B00025EA06470EFB06F607FB0EFE0BFB07F777
:1056C0001EEB064E4CEB164C4FF000061EEB074E41
:1056D0004CEB174B18EB0B0840F1000018EB0E0BCE
:1056E00058EB000840F100008F1A4FF000013CBF5A
:1056F000C943661B14BFB5EB040C00213CBFC94372
:10570000F61B4FEA17444EEA8E0E27EA04454FEA8D
:105710001C4704FB07622CEA074C05FB07F70CFB50
:1057200005F604FB0CFC16EB074642EB174216EBA2
:105730000C4642EB1C421BEB060658EB02024141B1
:1057400046EA9E0601D5BDE80189B619524141EBF2
:105750000101A3F10103BDE801894FEA14454FEAB5
:10576000114724EA054621EA074C05FB07F406FB2E
:1057700007F70CFB06F105FB0CFC11EB074144EBB2
:1057800017444FEA124711EB0C4144EB1C4422EA48
:10579000074C05FB07F206FB07F70CFB06F605FBBB
:1057A0000CFC16EB074642EB174216EB0C4642EB9D
:1057B0001C456A1854F1000148BF7047B6195241A0
:1057C00041EB0101A3F10103704795F0000F37D0C1
:1057D0004FEA11424FEA144721EA024624EA074CF5
:1057E00002FB07F106FB07F70CFB06F402FB0CFCBF
:1057F00014EB074441EB17414FEA154714EB0C44F7
:1058000041EB1C4125EA074C02FB07F506FB07F7B5
:105810000CFB06F602FB0CFC16EB074645EB1745A6
:1058200016EB0C4645EB1C42121951F1000148BF22
:105830007047B619524141EB0101A3F101037047D2
:105840004FEA14454FEA114724EA054621EA074C7E
:1058500005FB07F106FB07F70CFB06F24FF000060D
:1058600005FB0CFC12EB074241EB174112EB0C421B
:1058700051EB1C4148BF7047921841EB0101A3F165
:1058800001037047490050EAC12018BF04204A0DA7
:1058900018BF40F0010040F2FF72B2EB515F08BF49
:1058A00040F00200012808BF0520704730380A2860
:1058B00001D20120704700207047000010B5002978
:1058C0000AD00878002807D005487844FFF7D2FBB3
:1058D000002801D0002010BD0248784410BD00000F
:1058E000D6250000CE25000021F00042A2F1605232
:1058F000B2F5801F01F0004328BFD2F17F6C0BD9B5
:105900005FEA001C43EAC20242EB507018BF7047C6
:1059100028BF20F001007047B2F5801FBCBF1846B9
:1059200070474FEA410C1CF5001F02D2084600F0F8
:10593000F8BD70B500F00EFB00000089FFF7F6BF60
:105940004FF00040A0F580007047000010B591EACC
:10595000030F48BF83F0004300F15883841A71EBB2
:10596000030C05D2121943EB0C03001B61EB0C0175
:10597000DFF824E14FEA1154A4EB135C1EEA430F55
:1059800018BF9EEA445F73D023EA0E03DCF1200EB9
:1059900021EA045143F4801332D322FA0CFE10EBB7
:1059A0000E0023FA0CFE41EB0E01CCF1200E03FA9F
:1059B0000EFE10EB0E0051F10001B1F5801FCCF18D
:1059C000200E32D201EB045112FA0EF2BDE8104063
:1059D00058BF7047401C38BF5FEA420218BF70478B
:1059E000002814BF20F0010041F100014FEA4103FB
:1059F00013F5001F38BF7047A1F1C04100F0F8BA9D
:105A0000012A43EB0302ACF1200CDCF11F0E32BF84
:105A10004FF0000E23FA0CF310EB030041EB04519E
:105A2000B4EB115FD0D0A1EB045101F5801149080E
:105A30005FEA300001EB04510ED350F1000038BF93
:105A400012FA0EFE08D1BDE81040C9E7401C38BF6D
:105A50005FEA4202CAD1C3E7BDE810404FEA410302
:105A600013F5001F38BF7047A1F1C04100F0C0BA64
:105A70009EEA445F08D011EA5E0FBDE8104004BF03
:105A800001F0004100207047BDE8104070B500F003
:105A900061FA00BF64FBBE3E0000E0FF2DE9C0419B
:105AA00030B4DFF8A0C23CEA111418BF3CEA13146A
:105AB00000F0EC8081EA03051CEA111444EAD57475
:105AC00018BF1CEA131500F0C780A4EB05044FF0C3
:105AD000004545EAC12145EAC32341EA505143EA62
